:1000000002EF00F00F01538D000E976E856E000E0B
:10001000996E876E8D6A0F0E966E1EEC00F00000D2
:1000200024EC00F0000028EC00F000002CEC00F0C4
:100030000000F00E966E30EC00F000000F0E966E91
:1000400084B0120084CF85FF84B2120084CF85FF74
:1000500084B4120084CF85FF84B6120084CF85FF5C
:0800600084B8120084CF87FF71
:020000040001F9
:10FEAE0092802581010EC26E300EC16EF60EC06EAE
:10FEBE001200C282C2B2FED71200AB8EAC98AC94C6
:10FECE00AC8A6596670EAF6E948C1200056EDE508E
:10FEDE0074ECFFF0052EFBD712009EA8FED7AD6E78
:10FEEE0012008A6AC00E936E280EEAECFFF0300EF6
:10FEFE00B9ECFFF00A0EF1ECFFF0280EB9ECFFF0B2
:10FF0E000A0EF1ECFFF0280EB9ECFFF00A0EF1EC40
:10FF1E00FFF00F0EB9ECFFF00A0EF1ECFFF0010E40
:10FF2E00B9ECFFF0020EEAECFFF0060EB9ECFFF0B2
:10FF3E000A0EF1ECFFF01200066E0638A8ECFFF088
:10FF4E0006500F0B036E0A0E0360070F260F0324D5
:10FF5E00C7ECFFF01200046EDE50C7ECFFF0042E6B
:10FF6E00FBD71200036E03380F0B8A6E8A98D8ECFB
:10FF7E00FFF003500F0B8A6E8A98D8ECFFF0120038
:10FF8E00036E03380F0B8A6E8A88D8ECFFF003508D
:10FF9E000F0B8A6E8A88D8ECFFF00A0EF1ECFFF098
:10FFAE001200000000000000000000000000000031
:10FFBE0000008A8A0000000000000000000000001F
:10FFCE0000008A9A1200026EFA0EF1ECFFF0022E79
:10FFDE00FBD71200006E003A0F0E0014016EF00EE9
:10FFEE000016FBECFFF01200000E0006015AFDE2B7
:02FFFE001200EF
:020000040030CA
:0700000015137F00B98B917D
:06000800FFC0FFE0FF4015
:00000001FF
